{"abi":[{"type":"constructor","inputs":[],"stateMutability":"nonpayable"},{"type":"function","name":"BROKER_SUBMISSION_REWARD","inputs":[],"outputs":[{"name":"","type":"uint256","internalType":"uint256"}],"stateMutability":"view"},{"type":"function","name":"MAX_SELECTED_PROCESSORS","inputs":[],"outputs":[{"name":"","type":"uint256","internalType":"uint256"}],"stateMutability":"view"},{"type":"function","name":"MIN_PROCESSOR_STAKE","inputs":[],"outputs":[{"name":"","type":"uint256","internalType":"uint256"}],"stateMutability":"view"},{"type":"function","name":"MIN_USER_STAKE","inputs":[],"outputs":[{"name":"","type":"uint256","internalType":"uint256"}],"stateMutability":"view"},{"type":"function","name":"REMOVAL_PROCESSING_REWARD","inputs":[],"outputs":[{"name":"","type":"uint256","internalType":"uint256"}],"stateMutability":"view"},{"type":"function","name":"SLASH_PERCENTAGE","inputs":[],"outputs":[{"name":"","type":"uint256","internalType":"uint256"}],"stateMutability":"view"},{"type":"function","name":"allBrokerIds","inputs":[{"name":"","type":"uint256","internalType":"uint256"}],"outputs":[{"name":"","type":"uint256","internalType":"uint256"}],"stateMutability":"view"},{"type":"function","name":"allProcessors","inputs":[{"name":"","type":"uint256","internalType":"uint256"}],"outputs":[{"name":"","type":"address","internalType":"address"}],"stateMutability":"view"},{"type":"function","name":"allowance","inputs":[{"name":"owner","type":"address","internalType":"address"},{"name":"spender","type":"address","internalType":"address"}],"outputs":[{"name":"","type":"uint256","internalType":"uint256"}],"stateMutability":"view"},{"type":"function","name":"approve","inputs":[{"name":"spender","type":"address","internalType":"address"},{"name":"value","type":"uint256","internalType":"uint256"}],"outputs":[{"name":"","type":"bool","internalType":"bool"}],"stateMutability":"nonpayable"},{"type":"function","name":"balanceOf","inputs":[{"name":"account","type":"address","internalType":"address"}],"outputs":[{"name":"","type":"uint256","internalType":"uint256"}],"stateMutability":"view"},{"type":"function","name":"completeRemoval","inputs":[{"name":"removalId","type":"uint256","internalType":"uint256"},{"name":"zkProof","type":"string","internalType":"string"}],"outputs":[],"stateMutability":"nonpayable"},{"type":"function","name":"dataBrokers","inputs":[{"name":"","type":"uint256","internalType":"uint256"}],"outputs":[{"name":"id","type":"uint256","internalType":"uint256"},{"name":"name","type":"string","internalType":"string"},{"name":"website","type":"string","internalType":"string"},{"name":"removalInstructions","type":"string","internalType":"string"},{"name":"submitter","type":"address","internalType":"address"},{"name":"isVerified","type":"bool","internalType":"bool"},{"name":"submissionTime","type":"uint256","internalType":"uint256"},{"name":"totalRemovals","type":"uint256","internalType":"uint256"}],"stateMutability":"view"},{"type":"function","name":"decimals","inputs":[],"outputs":[{"name":"","type":"uint8","internalType":"uint8"}],"stateMutability":"view"},{"type":"function","name":"emergencyWithdraw","inputs":[],"outputs":[],"stateMutability":"nonpayable"},{"type":"function","name":"getAllDataBrokers","inputs":[],"outputs":[{"name":"","type":"tuple[]","internalType":"struct RemovalNinja.DataBroker[]","components":[{"name":"id","type":"uint256","internalType":"uint256"},{"name":"name","type":"string","internalType":"string"},{"name":"website","type":"string","internalType":"string"},{"name":"removalInstructions","type":"string","internalType":"string"},{"name":"submitter","type":"address","internalType":"address"},{"name":"isVerified","type":"bool","internalType":"bool"},{"name":"submissionTime","type":"uint256","internalType":"uint256"},{"name":"totalRemovals","type":"uint256","internalType":"uint256"}]}],"stateMutability":"view"},{"type":"function","name":"getAllProcessors","inputs":[],"outputs":[{"name":"","type":"tuple[]","internalType":"struct RemovalNinja.Processor[]","components":[{"name":"addr","type":"address","internalType":"address"},{"name":"isProcessor","type":"bool","internalType":"bool"},{"name":"stake","type":"uint256","internalType":"uint256"},{"name":"description","type":"string","internalType":"string"},{"name":"completedRemovals","type":"uint256","internalType":"uint256"},{"name":"reputation","type":"uint256","internalType":"uint256"},{"name":"registrationTime","type":"uint256","internalType":"uint256"},{"name":"isSlashed","type":"bool","internalType":"bool"}]}],"stateMutability":"view"},{"type":"function","name":"getProcessorReputation","inputs":[{"name":"processorAddr","type":"address","internalType":"address"}],"outputs":[{"name":"","type":"uint256","internalType":"uint256"}],"stateMutability":"view"},{"type":"function","name":"getStats","inputs":[],"outputs":[{"name":"totalBrokers","type":"uint256","internalType":"uint256"},{"name":"totalProcessors","type":"uint256","internalType":"uint256"},{"name":"totalRemovals","type":"uint256","internalType":"uint256"},{"name":"contractBalance","type":"uint256","internalType":"uint256"}],"stateMutability":"view"},{"type":"function","name":"getUserSelectedProcessors","inputs":[{"name":"user","type":"address","internalType":"address"}],"outputs":[{"name":"","type":"address[]","internalType":"address[]"}],"stateMutability":"view"},{"type":"function","name":"isProcessor","inputs":[{"name":"addr","type":"address","internalType":"address"}],"outputs":[{"name":"","type":"bool","internalType":"bool"}],"stateMutability":"view"},{"type":"function","name":"name","inputs":[],"outputs":[{"name":"","type":"string","internalType":"string"}],"stateMutability":"view"},{"type":"function","name":"nextBrokerId","inputs":[],"outputs":[{"name":"","type":"uint256","internalType":"uint256"}],"stateMutability":"view"},{"type":"function","name":"nextRemovalId","inputs":[],"outputs":[{"name":"","type":"uint256","internalType":"uint256"}],"stateMutability":"view"},{"type":"function","name":"owner","inputs":[],"outputs":[{"name":"","type":"address","internalType":"address"}],"stateMutability":"view"},{"type":"function","name":"pause","inputs":[],"outputs":[],"stateMutability":"nonpayable"},{"type":"function","name":"paused","inputs":[],"outputs":[{"name":"","type":"bool","internalType":"bool"}],"stateMutability":"view"},{"type":"function","name":"processors","inputs":[{"name":"","type":"address","internalType":"address"}],"outputs":[{"name":"addr","type":"address","internalType":"address"},{"name":"isProcessor","type":"bool","internalType":"bool"},{"name":"stake","type":"uint256","internalType":"uint256"},{"name":"description","type":"string","internalType":"string"},{"name":"completedRemovals","type":"uint256","internalType":"uint256"},{"name":"reputation","type":"uint256","internalType":"uint256"},{"name":"registrationTime","type":"uint256","internalType":"uint256"},{"name":"isSlashed","type":"bool","internalType":"bool"}],"stateMutability":"view"},{"type":"function","name":"registerProcessor","inputs":[{"name":"stakeAmount","type":"uint256","internalType":"uint256"},{"name":"description","type":"string","internalType":"string"}],"outputs":[],"stateMutability":"nonpayable"},{"type":"function","name":"removalRequests","inputs":[{"name":"","type":"uint256","internalType":"uint256"}],"outputs":[{"name":"id","type":"uint256","internalType":"uint256"},{"name":"user","type":"address","internalType":"address"},{"name":"brokerId","type":"uint256","internalType":"uint256"},{"name":"processor","type":"address","internalType":"address"},{"name":"isCompleted","type":"bool","internalType":"bool"},{"name":"isVerified","type":"bool","internalType":"bool"},{"name":"requestTime","type":"uint256","internalType":"uint256"},{"name":"completionTime","type":"uint256","internalType":"uint256"},{"name":"zkProof","type":"string","internalType":"string"}],"stateMutability":"view"},{"type":"function","name":"renounceOwnership","inputs":[],"outputs":[],"stateMutability":"nonpayable"},{"type":"function","name":"requestRemoval","inputs":[{"name":"brokerId","type":"uint256","internalType":"uint256"}],"outputs":[],"stateMutability":"nonpayable"},{"type":"function","name":"slashProcessor","inputs":[{"name":"processorAddr","type":"address","internalType":"address"},{"name":"reason","type":"string","internalType":"string"}],"outputs":[],"stateMutability":"nonpayable"},{"type":"function","name":"stakeForRemoval","inputs":[{"name":"stakeAmount","type":"uint256","internalType":"uint256"},{"name":"selectedProcessors","type":"address[]","internalType":"address[]"}],"outputs":[],"stateMutability":"nonpayable"},{"type":"function","name":"submitDataBroker","inputs":[{"name":"name","type":"string","internalType":"string"},{"name":"website","type":"string","internalType":"string"},{"name":"removalInstructions","type":"string","internalType":"string"}],"outputs":[],"stateMutability":"nonpayable"},{"type":"function","name":"symbol","inputs":[],"outputs":[{"name":"","type":"string","internalType":"string"}],"stateMutability":"view"},{"type":"function","name":"totalSupply","inputs":[],"outputs":[{"name":"","type":"uint256","internalType":"uint256"}],"stateMutability":"view"},{"type":"function","name":"transfer","inputs":[{"name":"to","type":"address","internalType":"address"},{"name":"value","type":"uint256","internalType":"uint256"}],"outputs":[{"name":"","type":"bool","internalType":"bool"}],"stateMutability":"nonpayable"},{"type":"function","name":"transferFrom","inputs":[{"name":"from","type":"address","internalType":"address"},{"name":"to","type":"address","internalType":"address"},{"name":"value","type":"uint256","internalType":"uint256"}],"outputs":[{"name":"","type":"bool","internalType":"bool"}],"stateMutability":"nonpayable"},{"type":"function","name":"transferOwnership","inputs":[{"name":"newOwner","type":"address","internalType":"address"}],"outputs":[],"stateMutability":"nonpayable"},{"type":"function","name":"unpause","inputs":[],"outputs":[],"stateMutability":"nonpayable"},{"type":"function","name":"userSelectedProcessors","inputs":[{"name":"","type":"address","internalType":"address"},{"name":"","type":"uint256","internalType":"uint256"}],"outputs":[{"name":"","type":"address","internalType":"address"}],"stateMutability":"view"},{"type":"function","name":"userStakeAmount","inputs":[{"name":"","type":"address","internalType":"address"}],"outputs":[{"name":"","type":"uint256","internalType":"uint256"}],"stateMutability":"view"},{"type":"function","name":"users","inputs":[{"name":"","type":"address","internalType":"address"}],"outputs":[{"name":"isStakingForRemoval","type":"bool","internalType":"bool"},{"name":"stakeAmount","type":"uint256","internalType":"uint256"},{"name":"stakeTime","type":"uint256","internalType":"uint256"}],"stateMutability":"view"},{"type":"function","name":"verifyDataBroker","inputs":[{"name":"brokerId","type":"uint256","internalType":"uint256"}],"outputs":[],"stateMutability":"nonpayable"},{"type":"event","name":"Approval","inputs":[{"name":"owner","type":"address","indexed":true,"internalType":"address"},{"name":"spender","type":"address","indexed":true,"internalType":"address"},{"name":"value","type":"uint256","indexed":false,"internalType":"uint256"}],"anonymous":false},{"type":"event","name":"BrokerVerified","inputs":[{"name":"brokerId","type":"uint256","indexed":true,"internalType":"uint256"},{"name":"verifier","type":"address","indexed":true,"internalType":"address"}],"anonymous":false},{"type":"event","name":"DataBrokerSubmitted","inputs":[{"name":"brokerId","type":"uint256","indexed":true,"internalType":"uint256"},{"name":"name","type":"string","indexed":false,"internalType":"string"},{"name":"submitter","type":"address","indexed":true,"internalType":"address"}],"anonymous":false},{"type":"event","name":"OwnershipTransferred","inputs":[{"name":"previousOwner","type":"address","indexed":true,"internalType":"address"},{"name":"newOwner","type":"address","indexed":true,"internalType":"address"}],"anonymous":false},{"type":"event","name":"Paused","inputs":[{"name":"account","type":"address","indexed":false,"internalType":"address"}],"anonymous":false},{"type":"event","name":"ProcessorRegistered","inputs":[{"name":"processor","type":"address","indexed":true,"internalType":"address"},{"name":"stake","type":"uint256","indexed":false,"internalType":"uint256"},{"name":"description","type":"string","indexed":false,"internalType":"string"}],"anonymous":false},{"type":"event","name":"ProcessorSlashed","inputs":[{"name":"processor","type":"address","indexed":true,"internalType":"address"},{"name":"slashedAmount","type":"uint256","indexed":false,"internalType":"uint256"},{"name":"reason","type":"string","indexed":false,"internalType":"string"}],"anonymous":false},{"type":"event","name":"RemovalCompleted","inputs":[{"name":"removalId","type":"uint256","indexed":true,"internalType":"uint256"},{"name":"processor","type":"address","indexed":true,"internalType":"address"},{"name":"zkProof","type":"string","indexed":false,"internalType":"string"}],"anonymous":false},{"type":"event","name":"RemovalRequested","inputs":[{"name":"removalId","type":"uint256","indexed":true,"internalType":"uint256"},{"name":"user","type":"address","indexed":true,"internalType":"address"},{"name":"brokerId","type":"uint256","indexed":true,"internalType":"uint256"},{"name":"processor","type":"address","indexed":false,"internalType":"address"}],"anonymous":false},{"type":"event","name":"Transfer","inputs":[{"name":"from","type":"address","indexed":true,"internalType":"address"},{"name":"to","type":"address","indexed":true,"internalType":"address"},{"name":"value","type":"uint256","indexed":false,"internalType":"uint256"}],"anonymous":false},{"type":"event","name":"Unpaused","inputs":[{"name":"account","type":"address","indexed":false,"internalType":"address"}],"anonymous":false},{"type":"event","name":"UserStakedForRemoval","inputs":[{"name":"user","type":"address","indexed":true,"internalType":"address"},{"name":"amount","type":"uint256","indexed":false,"internalType":"uint256"},{"name":"selectedProcessors","type":"address[]","indexed":false,"internalType":"address[]"}],"anonymous":false},{"type":"error","name":"ERC20InsufficientAllowance","inputs":[{"name":"spender","type":"address","internalType":"address"},{"name":"allowance","type":"uint256","internalType":"uint256"},{"name":"needed","type":"uint256","internalType":"uint256"}]},{"type":"error","name":"ERC20InsufficientBalance","inputs":[{"name":"sender","type":"address","internalType":"address"},{"name":"balance","type":"uint256","internalType":"uint256"},{"name":"needed","type":"uint256","internalType":"uint256"}]},{"type":"error","name":"ERC20InvalidApprover","inputs":[{"name":"approver","type":"address","internalType":"address"}]},{"type":"error","name":"ERC20InvalidReceiver","inputs":[{"name":"receiver","type":"address","internalType":"address"}]},{"type":"error","name":"ERC20InvalidSender","inputs":[{"name":"sender","type":"address","internalType":"address"}]},{"type":"error","name":"ERC20InvalidSpender","inputs":[{"name":"spender","type":"address","internalType":"address"}]},{"type":"error","name":"EnforcedPause","inputs":[]},{"type":"error","name":"ExpectedPause","inputs":[]},{"type":"error","name":"OwnableInvalidOwner","inputs":[{"name":"owner","type":"address","internalType":"address"}]},{"type":"error","name":"OwnableUnauthorizedAccount","inputs":[{"name":"account","type":"address","internalType":"address"}]},{"type":"error","name":"ReentrancyGuardReentrantCall","inputs":[]}],"bytecode":{"object":"0x60806040526001600e556001600f55348015610019575f80fd5b50336040518060400160405280600c81526020016b52656d6f76616c4e696e6a6160a01b81525060405180604001604052806002815260200161292760f11b815250816003908161006a9190610317565b5060046100778282610317565b5050506001600160a01b0381166100a857604051631e4fbdf760e01b81525f60048201526024015b60405180910390fd5b6100b1816100d0565b5060016006556100cb3369d3c21bcecceda1000000610121565b6103f6565b600580546001600160a01b038381166001600160a01b0319831681179093556040519116919082907f8be0079c531659141344cd1fd0a4f28419497f9722a3daafe3b4186f6b6457e0905f90a35050565b6001600160a01b03821661014a5760405163ec442f0560e01b81525f600482015260240161009f565b6101555f8383610159565b5050565b6001600160a01b038316610183578060025f82825461017891906103d1565b909155506101f39050565b6001600160a01b0383165f90815260208190526040902054818110156101d55760405163391434e360e21b81526001600160a01b0385166004820152602481018290526044810183905260640161009f565b6001600160a01b0384165f9081526020819052604090209082900390555b6001600160a01b03821661020f5760028054829003905561022d565b6001600160a01b0382165f9081526020819052604090208054820190555b816001600160a01b0316836001600160a01b03167fddf252ad1be2c89b69c2b068fc378daa952ba7f163c4a11628f55a4df523b3ef8360405161027291815260200190565b60405180910390a3505050565b634e487b7160e01b5f52604160045260245ffd5b600181811c908216806102a757607f821691505b6020821081036102c557634e487b7160e01b5f52602260045260245ffd5b50919050565b601f82111561031257805f5260205f20601f840160051c810160208510156102f05750805b601f840160051c820191505b8181101561030f575f81556001016102fc565b50505b505050565b81516001600160401b038111156103305761033061027f565b6103448161033e8454610293565b846102cb565b6020601f821160018114610376575f831561035f5750848201515b5f19600385901b1c1916600184901b17845561030f565b5f84815260208120601f198516915b828110156103a55787850151825560209485019460019092019101610385565b50848210156103c257868401515f19600387901b60f8161c191681555b50505050600190811b01905550565b808201808211156103f057634e487b7160e01b5f52601160045260245ffd5b92915050565b6133d3806104035f395ff3fe608060405234801561000f575f80fd5b5060043610610275575f3560e01c8063877cf39811610156578063bbf76a96116100ca578063dd62ed3e11610084578063dd62ed3e146105e4578063eea00eba1461061c578063f11d39bd1461062c578063f2fde38b1461063f578063f5007bad14610652578063fe5268a11461065a575f80fd5b8063bbf76a961461055e578063c59d484714610571578063cd23717014610599578063d24a89b4146105ac578063d5ddcca5146105b5578063db2e21bc146105dc575f80fd5b806399aaba751161011b57806399aaba75146104975780639f29f135146104bf578063a87430ba146104c7578063a9059cbb14610516578063ac720fc114610529578063af3368f214610549575f80fd5b8063877cf398146104315780638898afe4146104445780638da5cb5b1461045757806395d89b4114610468578063965e064a14610470575f80fd5b80633f4ba83a116101ed57806359273ddb116101b257806359273ddb146103ba5780635c975abb146103e557806370a08231146103f0578063715018a6146104185780637c0178cf146104205780638456cb5914610429575f80fd5b80633f4ba83a146103685780634a78a0531461037057806354dde87d1461038557806356c50a091461039457806357100efa146103a7575f80fd5b806318160ddd1161023e57806318160ddd146102fc57806323b872dd14610304578063313ce5671461031757806335098c96146103265780633d0a1418146103365780633e84681a14610349575f80fd5b80620919881461027957806306fdde03146102a157806307de3a06146102b6578063095ea7b3146102cb5780630b96c88d146102de575b5f80fd5b61028c610287366004612a30565b61066d565b60405190151581526020015b60405180910390f35b6102a96106bc565b6040516102989190612a7e565b6102c96102c4366004612ad5565b61074c565b005b61028c6102d9366004612b24565b6108fd565b6102ee68056bc75e2d6310000081565b604051908152602001610298565b6002546102ee565b61028c610312366004612b4c565b610914565b60405160128152602001610298565b6102ee683635c9adc5dea0000081565b6102c9610344366004612b86565b610937565b6102ee610357366004612a30565b600c6020525f908152604090205481565b6102c9610bca565b610378610bdc565b6040516102989190612bb5565b6102ee678ac7230489e8000081565b6102c96103a2366004612ca6565b610ee2565b6102ee6103b5366004612a30565b6112e8565b6103cd6103c8366004612b24565b611366565b6040516001600160a01b039091168152602001610298565b60075460ff1661028c565b6102ee6103fe366004612a30565b6001600160a01b03165f9081526020819052604090205490565b6102c961139a565b6102ee600f5481565b6102c96113ab565b6102c961043f366004612d20565b6113bb565b6102c9610452366004612b86565b611463565b6005546001600160a01b03166103cd565b6102a9611714565b61048361047e366004612a30565b611723565b604051610298989796959493929190612d37565b6104aa6104a5366004612d20565b6117fc565b60405161029899989796959493929190612d90565b6102ee600a81565b6104f96104d5366004612a30565b600a6020525f908152604090208054600182015460029092015460ff909116919083565b604080519315158452602084019290925290820152606001610298565b61028c610524366004612b24565b6118df565b61053c610537366004612a30565b6118ec565b6040516102989190612df7565b61055161195f565b6040516102989190612e42565b6102ee61056c366004612d20565b611b67565b610579611b86565b604080519485526020850193909352918301526060820152608001610298565b6103cd6105a7366004612d20565b611bb9565b6102ee600e5481565b6105c86105c3366004612d20565b611be1565b604051610298989796959493929190612f03565b6102c9611dc3565b6102ee6105f2366004612f74565b6001600160a01b039182165f90815260016020908152604080832093909416825291909152205490565b6102ee6802b5e3af16b188000081565b6102c961063a366004612d20565b611dff565b6102c961064d366004612a30565b6121b4565b6102ee600581565b6102c9610668366004612fa5565b6121ee565b6001600160a01b0381165f90815260096020526040812054600160a01b900460ff1680156106b657506001600160a01b0382165f9081526009602052604090206006015460ff16155b92915050565b6060600380546106cb90613044565b80601f01602080910402602001604051908101604052809291908181526020018280546106f790613044565b80156107425780601f1061071957610100808354040283529160200191610742565b820191905f5260205f20905b81548152906001019060200180831161072557829003601f168201915b5050505050905090565b6107546124aa565b6001600160a01b0383165f90815260096020526040902054600160a01b900460ff166107b95760405162461bcd60e51b815260206004820152600f60248201526e2737ba103090383937b1b2b9b9b7b960891b60448201526064015b60405180910390fd5b6001600160a01b0383165f9081526009602052604090206006015460ff16156108165760405162461bcd60e51b815260206004820152600f60248201526e105b1c9958591e481cdb185cda1959608a1b60448201526064016107b0565b6001600160a01b0383165f9081526009602052604081206001015460649061084090600a9061308a565b61084a91906130a1565b6001600160a01b0385165f908152600960205260408120600101805492935083929091906108799084906130c0565b90915550506001600160a01b0384165f90815260096020526040812060068101805460ff19166001179055600401556108b230826124d7565b836001600160a01b03167f8835334361c66784f3bd3aa161ac060c83927e230c05611ef0cb00ee4b61f6158285856040516108ef939291906130fb565b60405180910390a250505050565b5f3361090a81858561250f565b5060019392505050565b5f33610921858285612521565b61092c85858561259d565b506001949350505050565b335f90815260096020526040902054600160a01b900460ff1661099c5760405162461bcd60e51b815260206004820152601a60248201527f4e6f74206120726567697374657265642070726f636573736f7200000000000060448201526064016107b0565b335f9081526009602052604090206006015460ff16156109f55760405162461bcd60e51b8152602060048201526014602482015273141c9bd8d95cdcdbdc881a5cc81cdb185cda195960621b60448201526064016107b0565b825f81118015610a065750600f5481105b610a475760405162461bcd60e51b8152602060048201526012602482015271125b9d985b1a59081c995b5bdd985b08125160721b60448201526064016107b0565b5f848152600b6020526040902060038101546001600160a01b03163314610aa95760405162461bcd60e51b81526020600482015260166024820152752737ba1030b9b9b4b3b732b210383937b1b2b9b9b7b960511b60448201526064016107b0565b6003810154600160a01b900460ff1615610af95760405162461bcd60e51b8152602060048201526011602482015270105b1c9958591e4818dbdb5c1b195d1959607a1b60448201526064016107b0565b60038101805460ff60a01b1916600160a01b17905542600582015560068101610b2384868361317c565b50335f908152600960205260408120600301805491610b4183613236565b909155505060028101545f908152600860205260408120600601805491610b6783613236565b9190505550610b7f336802b5e3af16b18800006125fa565b336001600160a01b0316857f986bccdbbc635678e22dc9f147e174e5d2ed8bceeb01c2ed07d8f4c667f7730a8686604051610bbb92919061324e565b60405180910390a35050505050565b610bd26124aa565b610bda61262e565b565b6011546060905f9067ffffffffffffffff811115610bfc57610bfc61311d565b604051908082528060200260200182016040528015610c7b57816020015b610c686040518061010001604052805f81526020016060815260200160608152602001606081526020015f6001600160a01b031681526020015f151581526020015f81526020015f81525090565b815260200190600190039081610c1a5790505b5090505f5b601154811015610edc5760085f60118381548110610ca057610ca0613269565b905f5260205f20015481526020019081526020015f20604051806101000160405290815f8201548152602001600182018054610cdb90613044565b80601f0160208091040260200160405190810160405280929190818152602001828054610d0790613044565b8015610d525780601f10610d2957610100808354040283529160200191610d52565b820191905f5260205f20905b815481529060010190602001808311610d3557829003601f168201915b50505050508152602001600282018054610d6b90613044565b80601f0160208091040260200160405190810160405280929190818152602001828054610d9790613044565b8015610de25780601f10610db957610100808354040283529160200191610de2565b820191905f5260205f20905b815481529060010190602001808311610dc557829003601f168201915b50505050508152602001600382018054610dfb90613044565b80601f0160208091040260200160405190810160405280929190818152602001828054610e2790613044565b8015610e725780601f10610e4957610100808354040283529160200191610e72565b820191905f5260205f20905b815481529060010190602001808311610e5557829003601f168201915b505050918352505060048201546001600160a01b0381166020830152600160a01b900460ff1615156040820152600582015460608201526006909101546080909101528251839083908110610ec957610ec9613269565b6020908102919091010152600101610c80565b50919050565b610eea612680565b335f908152600a602052604090205460ff1615610f495760405162461bcd60e51b815260206004820152601b60248201527f416c7265616479207374616b696e6720666f722072656d6f76616c000000000060448201526064016107b0565b678ac7230489e80000831015610f9d5760405162461bcd60e51b8152602060048201526019602482015278125b9cdd59999a58da595b9d081cdd185ad948185b5bdd5b9d603a1b60448201526064016107b0565b80610ff55760405162461bcd60e51b815260206004820152602260248201527f4d7573742073656c656374206174206c65617374206f6e652070726f6365737360448201526137b960f11b60648201526084016107b0565b60058111156110465760405162461bcd60e51b815260206004820152601c60248201527f546f6f206d616e792070726f636573736f72732073656c65637465640000000060448201526064016107b0565b335f9081526020819052604090205483111561109b5760405162461bcd60e51b8152602060048201526014602482015273496e73756666696369656e742062616c616e636560601b60448201526064016107b0565b5f5b818110156111c75760095f8484848181106110ba576110ba613269565b90506020020160208101906110cf9190612a30565b6001600160a01b0316815260208101919091526040015f2054600160a01b900460ff166111325760405162461bcd60e51b815260206004820152601160248201527024b73b30b634b210383937b1b2b9b9b7b960791b60448201526064016107b0565b60095f84848481811061114757611147613269565b905060200201602081019061115c9190612a30565b6001600160a01b0316815260208101919091526040015f206006015460ff16156111bf5760405162461bcd60e51b8152602060048201526014602482015273141c9bd8d95cdcdbdc881a5cc81cdb185cda195960621b60448201526064016107b0565b60010161109d565b506111d333308561259d565b60405180608001604052806001151581526020018481526020014281526020018383808060200260200160405190810160405280939291908181526020018383602002808284375f920182905250939094525050338152600a60209081526040918290208451815460ff191690151517815584820151600182015591840151600283015560608401518051929350611274926003850192919091019061294d565b5050335f908152600c60209081526040808320879055600d909152902061129d915083836129b0565b50336001600160a01b03167f10c94c34d64d6be0a44fb2c198b962fe0139a88bf6ce152e7636ebd74da5d2a78484846040516112db9392919061327d565b60405180910390a2505050565b6001600160a01b0381165f90815260096020526040812054600160a01b900460ff166113485760405162461bcd60e51b815260206004820152600f60248201526e2737ba103090383937b1b2b9b9b7b960891b60448201526064016107b0565b506001600160a01b03165f9081526009602052604090206004015490565b600d602052815f5260405f20818154811061137f575f80fd5b5f918252602090912001546001600160a01b03169150829050565b6113a26124aa565b610bda5f6126a4565b6113b36124aa565b610bda6126f5565b6113c36124aa565b805f811180156113d45750600e5481105b6114145760405162461bcd60e51b8152602060048201526011602482015270125b9d985b1a5908189c9bdad95c881251607a1b60448201526064016107b0565b5f82815260086020526040808220600401805460ff60a01b1916600160a01b17905551339184917fdf16953588ac43e67166d27981e91d675d4c9c534d93402c3d92547a86786f199190a35050565b61146b612680565b335f90815260096020526040902054600160a01b900460ff16156114d15760405162461bcd60e51b815260206004820152601f60248201527f416c726561647920726567697374657265642061732070726f636573736f720060448201526064016107b0565b683635c9adc5dea000008310156115265760405162461bcd60e51b8152602060048201526019602482015278125b9cdd59999a58da595b9d081cdd185ad948185b5bdd5b9d603a1b60448201526064016107b0565b335f9081526020819052604090205483111561157b5760405162461bcd60e51b8152602060048201526014602482015273496e73756666696369656e742062616c616e636560601b60448201526064016107b0565b61158633308561259d565b604051806101000160405280336001600160a01b0316815260200160011515815260200184815260200183838080601f0160208091040260200160405190810160405280939291908181526020018383808284375f92018290525093855250505060208083018290526064604080850191909152426060808601919091526080909401839052338352600982529182902084518154928601511515600160a01b026001600160a81b03199093166001600160a01b03919091161791909117815590830151600182015590820151600282019061166290826132cf565b506080820151600382015560a0820151600482015560c0820151600582015560e0909101516006909101805460ff1916911515919091179055601080546001810182555f919091527f1b6847dc741a1b0cd08d278845f9d819d87b734759afb55fe2de5cb82a9ae672018054336001600160a01b031990911681179091556040517fa24a030d6f0ca62c4347e49ecce9874292e04998b722a11dc773660e83ae982d906112db908690869086906130fb565b6060600480546106cb90613044565b60096020525f90815260409020805460018201546002830180546001600160a01b03841694600160a01b90940460ff1693919061175f90613044565b80601f016020809104026020016040519081016040528092919081815260200182805461178b90613044565b80156117d65780601f106117ad576101008083540402835291602001916117d6565b820191905f5260205f20905b8154815290600101906020018083116117b957829003601f168201915b505050506003830154600484015460058501546006909501549394919390925060ff1688565b600b6020525f9081526040902080546001820154600283015460038401546004850154600586015460068701805496976001600160a01b0396871697959685169560ff600160a01b8704811696600160a81b9004169493929061185e90613044565b80601f016020809104026020016040519081016040528092919081815260200182805461188a90613044565b80156118d55780601f106118ac576101008083540402835291602001916118d5565b820191905f5260205f20905b8154815290600101906020018083116118b857829003601f168201915b5050505050905089565b5f3361090a81858561259d565b6001600160a01b0381165f908152600d602090815260409182902080548351818402810184019094528084526060939283018282801561195357602002820191905f5260205f20905b81546001600160a01b03168152600190910190602001808311611935575b50505050509050919050565b6010546060905f9067ffffffffffffffff81111561197f5761197f61311d565b6040519080825280602002602001820160405280156119fe57816020015b6119eb6040518061010001604052805f6001600160a01b031681526020015f151581526020015f8152602001606081526020015f81526020015f81526020015f81526020015f151581525090565b81526020019060019003908161199d5790505b5090505f5b601054811015610edc5760095f60108381548110611a2357611a23613269565b5f918252602080832091909101546001600160a01b03908116845283820194909452604092830190912082516101008101845281549485168152600160a01b90940460ff16151591840191909152600181015491830191909152600281018054606084019190611a9290613044565b80601f0160208091040260200160405190810160405280929190818152602001828054611abe90613044565b8015611b095780601f10611ae057610100808354040283529160200191611b09565b820191905f5260205f20905b815481529060010190602001808311611aec57829003601f168201915b505050918352505060038201546020820152600482015460408201526005820154606082015260069091015460ff1615156080909101528251839083908110611b5457611b54613269565b6020908102919091010152600101611a03565b60118181548110611b76575f80fd5b5f91825260209091200154905081565b601154601054600f545f908190611b9f906001906130c0565b305f90815260208190526040902054909250905090919293565b60108181548110611bc8575f80fd5b5f918252602090912001546001600160a01b0316905081565b60086020525f908152604090208054600182018054919291611c0290613044565b80601f0160208091040260200160405190810160405280929190818152602001828054611c2e90613044565b8015611c795780601f10611c5057610100808354040283529160200191611c79565b820191905f5260205f20905b815481529060010190602001808311611c5c57829003601f168201915b505050505090806002018054611c8e90613044565b80601f0160208091040260200160405190810160405280929190818152602001828054611cba90613044565b8015611d055780601f10611cdc57610100808354040283529160200191611d05565b820191905f5260205f20905b815481529060010190602001808311611ce857829003601f168201915b505050505090806003018054611d1a90613044565b80601f0160208091040260200160405190810160405280929190818152602001828054611d4690613044565b8015611d915780601f10611d6857610100808354040283529160200191611d91565b820191905f5260205f20905b815481529060010190602001808311611d7457829003601f168201915b505050506004830154600584015460069094015492936001600160a01b03821693600160a01b90920460ff1692509088565b611dcb6124aa565b305f908152602081905260409020548015611dfc57611dfc30611df66005546001600160a01b031690565b8361259d565b50565b335f908152600a602052604090205460ff16611e5d5760405162461bcd60e51b815260206004820152601c60248201527f55736572206e6f74207374616b696e6720666f722072656d6f76616c0000000060448201526064016107b0565b805f81118015611e6e5750600e5481105b611eae5760405162461bcd60e51b8152602060048201526011602482015270125b9d985b1a5908189c9bdad95c881251607a1b60448201526064016107b0565b335f908152600a6020908152604080832060030180548251818502810185019093528083529192909190830182828015611f0f57602002820191905f5260205f20905b81546001600160a01b03168152600190910190602001808311611ef1575b505050505090505f815111611f5f5760405162461bcd60e51b8152602060048201526016602482015275139bc81c1c9bd8d95cdcdbdc9cc81cd95b1958dd195960521b60448201526064016107b0565b5f815f81518110611f7257611f72613269565b6020908102919091018101516001600160a01b0381165f9081526009909252604090912054909150600160a01b900460ff16611ff05760405162461bcd60e51b815260206004820181905260248201527f53656c65637465642070726f636573736f72206e6f7420617661696c61626c6560448201526064016107b0565b6001600160a01b0381165f9081526009602052604090206006015460ff161561205b5760405162461bcd60e51b815260206004820152601d60248201527f53656c65637465642070726f636573736f7220697320736c617368656400000060448201526064016107b0565b600f80545f918261206b83613236565b9091555060408051610120810182528281523360208083019182528284018a81526001600160a01b03888116606086019081525f6080870181815260a088018281524260c08a0190815260e08a018481528b51808a018d528581526101008c019081528d8652600b9099529a9093208951815597516001890180546001600160a01b03191691871691909117905594516002880155915160038701805493519551919094166001600160a81b031990931692909217600160a01b941515949094029390931760ff60a81b1916600160a81b9115159190910217905551600483015592516005820155915192935091600682019061216890826132cf565b50506040516001600160a01b0384168152869150339083907f1018c5f6a86f5f24481b6f5a6f1244b1c46b062aaa9820f0b770d86640c190169060200160405180910390a45050505050565b6121bc6124aa565b6001600160a01b0381166121e557604051631e4fbdf760e01b81525f60048201526024016107b0565b611dfc816126a4565b6121f6612680565b8461223a5760405162461bcd60e51b81526020600482015260146024820152734e616d652063616e6e6f7420626520656d70747960601b60448201526064016107b0565b826122875760405162461bcd60e51b815260206004820152601760248201527f576562736974652063616e6e6f7420626520656d70747900000000000000000060448201526064016107b0565b600e80545f918261229783613236565b91905055905060405180610100016040528082815260200188888080601f0160208091040260200160405190810160405280939291908181526020018383808284375f92019190915250505090825250604080516020601f8901819004810282018101909252878152918101919088908890819084018382808284375f92019190915250505090825250604080516020601f8701819004810282018101909252858152918101919086908690819084018382808284375f920182905250938552505033602080850191909152604080850184905242606086015260809094018390528583526008815292909120835181559183015160018301915061239c90826132cf565b50604082015160028201906123b190826132cf565b50606082015160038201906123c690826132cf565b50608082015160048201805460a08501511515600160a01b026001600160a81b03199091166001600160a01b039093169290921791909117905560c0820151600582015560e090910151600690910155601180546001810182555f919091527f31ecc21a745e3968a04e9570e4425bc18fa8019c68028196b546d1669c200c680181905561245d3368056bc75e2d631000006125fa565b336001600160a01b0316817f1aee1ede65ecc5ef20c9bcec7ba567cdafb82b15258c53be84aa76925626036d898960405161249992919061324e565b60405180910390a350505050505050565b6005546001600160a01b03163314610bda5760405163118cdaa760e01b81523360048201526024016107b0565b6001600160a01b03821661250057604051634b637e8f60e11b81525f60048201526024016107b0565b61250b825f83612732565b5050565b61251c8383836001612858565b505050565b6001600160a01b038381165f908152600160209081526040808320938616835292905220545f19811015612597578181101561258957604051637dc7a0d960e11b81526001600160a01b038416600482015260248101829052604481018390526064016107b0565b61259784848484035f612858565b50505050565b6001600160a01b0383166125c657604051634b637e8f60e11b81525f60048201526024016107b0565b6001600160a01b0382166125ef5760405163ec442f0560e01b81525f60048201526024016107b0565b61251c838383612732565b6001600160a01b0382166126235760405163ec442f0560e01b81525f60048201526024016107b0565b61250b5f8383612732565b61263661292a565b6007805460ff191690557f5db9ee0a495bf2e6ff9c91a7834c1ba4fdd244a5e8aa4e537bd38aeae4b073aa335b6040516001600160a01b03909116815260200160405180910390a1565b60075460ff1615610bda5760405163d93c066560e01b815260040160405180910390fd5b600580546001600160a01b038381166001600160a01b0319831681179093556040519116919082907f8be0079c531659141344cd1fd0a4f28419497f9722a3daafe3b4186f6b6457e0905f90a35050565b6126fd612680565b6007805460ff191660011790557f62e78cea01bee320cd4e420270b5ea74000d11b0c9f74754ebdbfc544b05a2586126633390565b6001600160a01b03831661275c578060025f828254612751919061338a565b909155506127cc9050565b6001600160a01b0383165f90815260208190526040902054818110156127ae5760405163391434e360e21b81526001600160a01b038516600482015260248101829052604481018390526064016107b0565b6001600160a01b0384165f9081526020819052604090209082900390555b6001600160a01b0382166127e857600280548290039055612806565b6001600160a01b0382165f9081526020819052604090208054820190555b816001600160a01b0316836001600160a01b03167fddf252ad1be2c89b69c2b068fc378daa952ba7f163c4a11628f55a4df523b3ef8360405161284b91815260200190565b60405180910390a3505050565b6001600160a01b0384166128815760405163e602df0560e01b81525f60048201526024016107b0565b6001600160a01b0383166128aa57604051634a1406b160e11b81525f60048201526024016107b0565b6001600160a01b038085165f908152600160209081526040808320938716835292905220829055801561259757826001600160a01b0316846001600160a01b03167f8c5be1e5ebec7d5bd14f71427d1e84f3dd0314c0f7b2291e5b200ac8c7c3b9258460405161291c91815260200190565b60405180910390a350505050565b60075460ff16610bda57604051638dfc202b60e01b815260040160405180910390fd5b828054828255905f5260205f209081019282156129a0579160200282015b828111156129a057825182546001600160a01b0319166001600160a01b0390911617825560209092019160019091019061296b565b506129ac929150612a01565b5090565b828054828255905f5260205f209081019282156129a0579160200282015b828111156129a05781546001600160a01b0319166001600160a01b038435161782556020909201916001909101906129ce565b5b808211156129ac575f8155600101612a02565b80356001600160a01b0381168114612a2b575f80fd5b919050565b5f60208284031215612a40575f80fd5b612a4982612a15565b9392505050565b5f81518084528060208401602086015e5f602082860101526020601f19601f83011685010191505092915050565b602081525f612a496020830184612a50565b5f8083601f840112612aa0575f80fd5b50813567ffffffffffffffff811115612ab7575f80fd5b602083019150836020828501011115612ace575f80fd5b9250929050565b5f805f60408486031215612ae7575f80fd5b612af084612a15565b9250602084013567ffffffffffffffff811115612b0b575f80fd5b612b1786828701612a90565b9497909650939450505050565b5f8060408385031215612b35575f80fd5b612b3e83612a15565b946020939093013593505050565b5f805f60608486031215612b5e575f80fd5b612b6784612a15565b9250612b7560208501612a15565b929592945050506040919091013590565b5f805f60408486031215612b98575f80fd5b83359250602084013567ffffffffffffffff811115612b0b575f80fd5b5f602082016020835280845180835260408501915060408160051b8601019250602086015f5b82811015612c9a57603f1987860301845281518051865260208101516101006020880152612c0d610100880182612a50565b905060408201518782036040890152612c268282612a50565b91505060608201518782036060890152612c408282612a50565b9150506080820151612c5d60808901826001600160a01b03169052565b5060a0820151612c7160a089018215159052565b5060c0828101519088015260e09182015191909601526020938401939190910190600101612bdb565b50929695505050505050565b5f805f60408486031215612cb8575f80fd5b83359250602084013567ffffffffffffffff811115612cd5575f80fd5b8401601f81018613612ce5575f80fd5b803567ffffffffffffffff811115612cfb575f80fd5b8660208260051b8401011115612d0f575f80fd5b939660209190910195509293505050565b5f60208284031215612d30575f80fd5b5035919050565b60018060a01b0389168152871515602082015286604082015261010060608201525f612d67610100830188612a50565b90508560808301528460a08301528360c083015282151560e08301529998505050505050505050565b8981526001600160a01b0389811660208301526040820189905287166060820152851515608082015284151560a082015260c0810184905260e0810183905261012061010082018190525f90612de890830184612a50565b9b9a5050505050505050505050565b602080825282518282018190525f918401906040840190835b81811015612e375783516001600160a01b0316835260209384019390920191600101612e10565b509095945050505050565b5f602082016020835280845180835260408501915060408160051b8601019250602086015f5b82811015612c9a57603f19878603018452815160018060a01b0381511686526020810151151560208701526040810151604087015260608101516101006060880152612eb8610100880182612a50565b90506080820151608088015260a082015160a088015260c082015160c088015260e08201519150612eed60e088018315159052565b9550506020938401939190910190600101612e68565b88815261010060208201525f612f1d61010083018a612a50565b8281036040840152612f2f818a612a50565b90508281036060840152612f438189612a50565b6001600160a01b03979097166080840152505092151560a084015260c083019190915260e090910152949350505050565b5f8060408385031215612f85575f80fd5b612f8e83612a15565b9150612f9c60208401612a15565b90509250929050565b5f805f805f8060608789031215612fba575f80fd5b863567ffffffffffffffff811115612fd0575f80fd5b612fdc89828a01612a90565b909750955050602087013567ffffffffffffffff811115612ffb575f80fd5b61300789828a01612a90565b909550935050604087013567ffffffffffffffff811115613026575f80fd5b61303289828a01612a90565b979a9699509497509295939492505050565b600181811c9082168061305857607f821691505b602082108103610edc57634e487b7160e01b5f52602260045260245ffd5b634e487b7160e01b5f52601160045260245ffd5b80820281158282048414176106b6576106b6613076565b5f826130bb57634e487b7160e01b5f52601260045260245ffd5b500490565b818103818111156106b6576106b6613076565b81835281816020850137505f828201602090810191909152601f909101601f19169091010190565b838152604060208201525f6131146040830184866130d3565b95945050505050565b634e487b7160e01b5f52604160045260245ffd5b601f82111561251c57805f5260205f20601f840160051c810160208510156131565750805b601f840160051c820191505b81811015613175575f8155600101613162565b5050505050565b67ffffffffffffffff8311156131945761319461311d565b6131a8836131a28354613044565b83613131565b5f601f8411600181146131d9575f85156131c25750838201355b5f19600387901b1c1916600186901b178355613175565b5f83815260208120601f198716915b8281101561320857868501358255602094850194600190920191016131e8565b5086821015613224575f1960f88860031b161c19848701351681555b505060018560011b0183555050505050565b5f6001820161324757613247613076565b5060010190565b602081525f6132616020830184866130d3565b949350505050565b634e487b7160e01b5f52603260045260245ffd5b83815260406020820181905281018290525f8360608301825b858110156132c4576001600160a01b036132af84612a15565b16825260209283019290910190600101613296565b509695505050505050565b815167ffffffffffffffff8111156132e9576132e961311d565b6132fd816132f78454613044565b84613131565b6020601f82116001811461332f575f83156133185750848201515b5f19600385901b1c1916600184901b178455613175565b5f84815260208120601f198516915b8281101561335e578785015182556020948501946001909201910161333e565b508482101561337b57868401515f19600387901b60f8161c191681555b50505050600190811b01905550565b808201808211156106b6576106b661307656fea26469706673582212207eba6f044c7d371d6a9b48c0a5f20b7fe48623873adf3b5e35155485e7186afb64736f6c634300081a0033","linkReferences":{}},"methodIdentifiers":{"BROKER_SUBMISSION_REWARD()":"0b96c88d","MAX_SELECTED_PROCESSORS()":"f5007bad","MIN_PROCESSOR_STAKE()":"35098c96","MIN_USER_STAKE()":"54dde87d","REMOVAL_PROCESSING_REWARD()":"eea00eba","SLASH_PERCENTAGE()":"9f29f135","allBrokerIds(uint256)":"bbf76a96","allProcessors(uint256)":"cd237170","allowance(address,address)":"dd62ed3e","approve(address,uint256)":"095ea7b3","balanceOf(address)":"70a08231","completeRemoval(uint256,string)":"3d0a1418","dataBrokers(uint256)":"d5ddcca5","decimals()":"313ce567","emergencyWithdraw()":"db2e21bc","getAllDataBrokers()":"4a78a053","getAllProcessors()":"af3368f2","getProcessorReputation(address)":"57100efa","getStats()":"c59d4847","getUserSelectedProcessors(address)":"ac720fc1","isProcessor(address)":"00091988","name()":"06fdde03","nextBrokerId()":"d24a89b4","nextRemovalId()":"7c0178cf","owner()":"8da5cb5b","pause()":"8456cb59","paused()":"5c975abb","processors(address)":"965e064a","registerProcessor(uint256,string)":"8898afe4","removalRequests(uint256)":"99aaba75","renounceOwnership()":"715018a6","requestRemoval(uint256)":"f11d39bd","slashProcessor(address,string)":"07de3a06","stakeForRemoval(uint256,address[])":"56c50a09","submitDataBroker(string,string,string)":"fe5268a1","symbol()":"95d89b41","totalSupply()":"18160ddd","transfer(address,uint256)":"a9059cbb","transferFrom(address,address,uint256)":"23b872dd","transferOwnership(address)":"f2fde38b","unpause()":"3f4ba83a","userSelectedProcessors(address,uint256)":"59273ddb","userStakeAmount(address)":"3e84681a","users(address)":"a87430ba","verifyDataBroker(uint256)":"877cf398"},"id":30}